:100000000C9434000C9451000C9451000C94510049
:100010000C9451000C9451000C9451000C9451001C
:100020000C9451000C9451000C9451000C946600F7
:100030000C9451000C9451000C9451000C945100FC
:100040000C9451000C9451000C94DB100C948A1009
:100050000C9451000C94EC000C9451000C94510041
:100060000C9451000C94510011241FBECFEFD4E02A
:10007000DEBFCDBF12E0A0E0B1E0E6E3F4E302C0F2
:1000800005900D92A633B107D9F724E0A6E3B2E0BC
:1000900001C01D92A831B207E1F70E948C150C94A3
:1000A000191A0C940000E1E8F0E01082109285002B
:1000B0001092840082E080936F0082E49FE090932E
:1000C00089008093880085E0808308951F920F92B5
:1000D0000FB60F9211242F933F934F935F936F931B
:1000E0007F938F939F93AF93BF93EF93FF93109260
:1000F000810081E080933A020E945300FF91EF91CA
:10010000BF91AF919F918F917F916F915F914F912F
:100110003F912F910F900FBE0F901F901895ECE715
:10012000F0E09081907F908390818F70892B808305
:10013000EAE7F0E0808180648083089582E0809324
:100140003B0286E08093390281E00E94781210928F
:10015000C7021092C8021092C9021092CA021092ED
:10016000CB021092CC021092CD02EAE7F0E01082AE
:1001700080818560808380818860808387E0809330
:100180007E00808180688083809139020C948F008A
:100190002091780030917900932F80E0AC01422BC0
:1001A0009A01C9010895CF93C0917A0090917A0085
:1001B000977F90937A000E948F0080917A0084FF4D
:1001C000FCCF0E94C80020917A00206120937A0021
:1001D000C0937A00CF9108951F920F920FB60F929D
:1001E0001124CF92DF92EF92FF922F933F934F9380
:1001F0005F936F937F938F939F93AF93BF93CF93AF
:10020000EF93FF93C0913B02C43009F48CC140F4DA
:10021000C23079F008F0CCC0C13009F09CC23CC2B9
:10022000C63009F425C108F465C0C73009F093C28F
:10023000D5C1C090AB02D090AC02E090AD02F0907E
:10024000AE020E94C800C80ED91EE11CF11CC0926B
:10025000AB02D092AC02E092AD02F092AE0280917D
:10026000C8028F5F8093C8028091C8028032D1F5A6
:100270002091AB023091AC024091AD025091AE02A0
:10028000A5E05695479537952795AA95D1F7A2E908
:10029000B0E00E94A8196093930270939402809337
:1002A00095029093960260919302709194028091CE
:1002B0009502909196022AE030E040E050E00E94E2
:1002C0005E1930938402209383021092C802109228
:1002D000AB021092AC021092AD021092AE0281E01D
:1002E0008093D60285E080933B0281E080933902BF
:1002F00082E038C2C090BB02D090BC02E090BD0248
:10030000F090BE020E94C800C80ED91EE11CF11C6C
:10031000C092BB02D092BC02E092BD02F092BE023B
:100320008091CB028F5F8093CB028091CB02803291
:10033000D1F52091BB023091BC024091BD02509199
:10034000BE02F5E05695479537952795FA95D1F772
:10035000A8E3B0E00E94A81960939F027093A002E6
:100360008093A1029093A20260919F027091A002DB
:100370008091A1029091A2022AE030E040E050E09A
:100380000E945E1930938A02209389021092CB0258
:100390001092BB021092BC021092BD021092BE02DB
:1003A00081E08093D90281E08093D90283E0CDC1BE
:1003B000C090AF02D090B002E090B102F090B202D3
:1003C0000E94C800C80ED91EE11CF11CC092AF02E9
:1003D000D092B002E092B102F092B2028091C902D2
:1003E0008F5F8093C9028091C9028032D1F520913C
:1003F000AF023091B0024091B1025091B202E5E0FB
:100400005695479537952795EA95D1F7A2E9B0E03B
:100410000E94A819609397027093980280939902A2
:1004200090939A026091970270919802809199023C
:1004300090919A022AE030E040E050E00E945E197C
:1004400030938602209385021092C9021092AF0267
:100450001092B0021092B1021092B20281E0809329
:10046000D70286E080933B021092390283E07AC182
:10047000C090BF02D090C002E090C102F090C202D2
:100480000E94C800C80ED91EE11CF11CC092BF0218
:10049000D092C002E092C102F092C2028091CC02DE
:1004A0008F5F8093CC028091CC028032D1F5209175
:1004B000BF023091C0024091C1025091C20275E06A
:1004C00056954795379527957A95D1F7A8E3B0E0EB
:1004D0000E94A8196093A3027093A4028093A502BE
:1004E0009093A6026091A3027091A4028091A5024C
:1004F0009091A6022AE030E040E050E00E945E19B0
:1005000030938C0220938B021092CC021092BF0287
:100510001092C0021092C1021092C20281E0809338
:10052000DA0284E012C1C090B302D090B402E0902D
:10053000B502F090B6020E94C800C80ED91EE11C98
:10054000F11CC092B302D092B402E092B502F092D4
:10055000B6028091CA028F5F8093CA028091CA025C
:10056000803209F0F8C02091B3023091B40240917A
:10057000B5025091B60265E0569547953795279597
:100580006A95D1F7A2E9B0E00E94A81960939B0296
:1005900070939C0280939D0290939E0260919B02B7
:1005A00070919C0280919D0290919E022AE030E021
:1005B00040E050E00E945E19309388022093870249
:1005C0001092CA021092B3021092B4021092B502B5
:1005D0001092B60281E08093D802BDC0C090C302E1
:1005E000D090C402E090C502F090C6020E94C800FC
:1005F000C80ED91EE11CF11CC092C302D092C402E5
:10060000E092C502F092C6028091CD028F5F809386
:10061000CD028091CD028032D1F52091C30230917C
:10062000C4024091C5025091C60295E05695479587
:10063000379527959A95D1F7A8E3B0E00E94A819BD
:100640006093A7027093A8028093A9029093AA02D4
:100650006091A7027091A8028091A9029091AA02CC
:100660002AE030E040E050E00E945E1930938E02B4
:1006700020938D021092CD021092C3021092C402F8
:100680001092C5021092C60281E08093DB0281E0E5
:1006900080933B0287E05CC0C090B702D090B80264
:1006A000E090B902F090BA020E94C800C80ED91EAC
:1006B000E11CF11CC092B702D092B802E092B902DC
:1006C000F092BA028091C7028F5F8093C702809137
:1006D000C7028032C9F52091B7023091B80240912B
:1006E000B9025091BA0285E05695479537952795FE
:1006F0008A95D1F7A2E9B0E00E94A81960938F0211
:1007000070939002809391029093920260918F0275
:100710007091900280919102909192022AE030E0D3
:1007200040E050E00E945E193093820220938102E3
:100730001092C7021092B7021092B8021092B9023A
:100740001092BA02C093D50282E080933B0286E009
:100750008093390209C087E080933B0282E0809356
:10076000390281E00E947812809139020E948F0044
:10077000FF91EF91CF91BF91AF919F918F917F9119
:100780006F915F914F913F912F91FF90EF90DF908C
:10079000CF900F900FBE0F901F9018955D9A81E03B
:1007A00080932B031092CE02809108019091090151
:1007B00090933E0280933D0208955D9810922B0322
:1007C0001092CE02809106019091070190933E0213
:1007D00080933D0208955D981092CE0280910601AB
:1007E0009091070190933E0280933D020895CF932C
:1007F000DF93C0E0D0E0CE01880F991F880F991FCA
:10080000FC01E052FD4F4081518162817381805033
:1008100090400E94EE192196CD30D10561F7DF910D
:10082000CF91089540911A0350911B0380912503A5
:10083000909126039F70A0E0B0E0DC019927882703
:1008400060E070E0842B952BA62BB72B8093E00201
:100850009093E102A093E202B093E30280912B0314
:10086000882389F08091E0029091E102A091E20258
:10087000B091E302B0688093E0029093E102A0930C
:10088000E202B093E30280912E03882389F08091E5
:10089000E0029091E102A091E202B091E302B06423
:1008A0008093E0029093E102A093E202B093E3020E
:1008B0008091310390913203A0913303B0913403BE
:1008C0008093F0029093F102A093F202B093F302AE
:1008D0008091350390913603A0913703B09138038E
:1008E0008093F4029093F502A093F602B093F7027E
:1008F0008091390390913A03A0913B03B0913C035E
:100900008093F8029093F902A093FA02B093FB024D
:1009100040911C0350911D0380912703909128035F
:100920009F70A0E0B0E0DC019927882760E070E0CC
:10093000842B952BA62BB72B8093E4029093E50292
:10094000A093E602B093E70280912C03882389F0FC
:100950008091E4029091E502A091E602B091E70255
:10096000B0688093E4029093E502A093E602B0930E
:10097000E70280912F03882389F08091E40290910F
:10098000E502A091E602B091E702B0648093E40230
:100990009093E502A093E602B093E70280913D03B5
:1009A00090913E03A0913F03B09140038093FC02DD
:1009B0009093FD02A093FE02B093FF028091410349
:1009C00090914203A0914303B091440380930003AC
:1009D00090930103A0930203B09303038091450316
:1009E00090914603A0914703B0914803809304037C
:1009F00090930503A0930603B093070340911E0351
:100A000050911F038091290390912A039F70A0E0C9
:100A1000B0E0DC019927882760E070E0842B952BFB
:100A2000A62BB72B8093E8029093E902A093EA02E9
:100A3000B093EB0280912D03882389F08091E80226
:100A40009091E902A091EA02B091EB02B068809324
:100A5000E8029093E902A093EA02B093EB0280913E
:100A60003003882389F08091E8029091E902A091F7
:100A7000EA02B091EB02B0648093E8029093E9023D
:100A8000A093EA02B093EB028091490390914A034C
:100A9000A0914B03B0914C038093080390930903FA
:100AA000A0930A03B0930B0380914D0390914E03E2
:100AB000A0914F03B091500380930C0390930D03CA
:100AC000A0930E03B0930F038091510390915203B2
:100AD000A0915303B091540380931003909311039A
:100AE000A0931203B09313038091200390912103EC
:100AF000A0E0B0E08093EC029093ED02A093EE02B0
:100B0000B093EF0280912203882389F08091EC0258
:100B10009091ED02A091EE02B091EF02B068809347
:100B2000EC029093ED02A093EE02B093EF0280915D
:100B30002303882389F08091EC029091ED02A0912B
:100B4000EE02B091EF02B0648093EC029093ED025C
:100B5000A093EE02B093EF0280912403882389F0E2
:100B60008091EC029091ED02A091EE02B091EF0223
:100B7000B0628093EC029093ED02A093EE02B093EA
:100B8000EF0208950E9412040C94F703409183022F
:100B9000509184028091890290918A029F70A0E016
:100BA000B0E0DC019927882760E070E0842B952B6A
:100BB000A62BB72B8093710290937202A0937302BD
:100BC000B0937402409185025091860280918B020D
:100BD00090918C029F70A0E0B0E0DC0199278827FB
:100BE00060E070E0842B952BA62BB72B80937502C9
:100BF00090937602A0937702B09378024091870297
:100C00005091880280918D0290918E029F70A0E099
:100C1000B0E0DC019927882760E070E0842B952BF9
:100C2000A62BB72B8093790290937A02A0937B0234
:100C3000B0937C028091810290918202A0E0B0E0AA
:100C400080937D0290937E02A0937F02B0938002F6
:100C50008091D402882389F080917D0290917E0258
:100C6000A0917F02B0918002B06880937D02909342
:100C70007E02A0937F02B093800280912B03882391
:100C8000F9F08091CE02882351F080917102909109
:100C90007202A0917302B0917402B06409C0809195
:100CA000710290917202A0917302B0917402B068C7
:100CB0008093710290937202A0937302B0937402B6
:100CC00080912C038823F9F08091CF02882351F082
:100CD0008091750290917602A0917702B09178028E
:100CE000B06409C08091750290917602A09177025C
:100CF000B0917802B0688093750290937602A093C9
:100D00007702B093780280912D038823F9F08091C7
:100D1000D002882351F08091790290917A02A091BB
:100D20007B02B0917C02B06409C0809179029091FD
:100D30007A02A0917B02B0917C02B0688093790224
:100D400090937A02A0937B02B0937C028091D102AF
:100D5000882309F1409171025091720260917302EF
:100D6000709174028091D102837090E0A0E0B0E0B5
:100D70002CE1880F991FAA1FBB1F2A95D1F7842B3E
:100D8000952BA62BB72B8093710290937202A093A0
:100D90007302B09374028091D202882309F14091CA
:100DA000750250917602609177027091780280917D
:100DB000D202837090E0A0E0B0E0FCE1880F991FC0
:100DC000AA1FBB1FFA95D1F7842B952BA62BB72B07
:100DD0008093750290937602A0937702B093780285
:100DE0008091D302882309F14091790250917A02CF
:100DF00060917B0270917C028091D302837090E0BD
:100E0000A0E0B0E0ECE1880F991FAA1FBB1FEA9594
:100E1000D1F7842B952BA62BB72B80937902909337
:100E20007A02A0937B02B0937C020C94120440914E
:100E300016035091170360E070E08DE20E94CB0E24
:100E4000892B79F082E08093D2020E94C6058091BE
:100E50000201909103019093DD028093DC0281E016
:100E600008951092D20280E008958130E1F440911B
:100E700014035091150360E070E08CE20E94CB0EE9
:100E8000892B71F082E08093D1020E94C605809187
:100E900002019091030190933E0280933D0226C08F
:100EA0001092D10221C0823011F40C9417078330C4
:100EB000E9F4409118035091190360E070E08EE26C
:100EC0000E94CB0E892B71F082E08093D3020E94A6
:100ED000C60580910201909103019093DF028093F7
:100EE000DE0204C01092D30280E0089581E00895EC
:100EF0000F931F93CF93DF93EA01F901813019F526
:100F00000091310310913203209133033091340367
:100F1000DB010D931D932D933C9313978091350323
:100F200090913603A0913703B09138038883998359
:100F3000AA83BB838091390390913A03A0913B032C
:100F4000B0913C0349C0823019F500913D031091E6
:100F50003E0320913F0330914003DB010D931D932D
:100F60002D933C9313978091410390914203A0915C
:100F70004303B091440388839983AA83BB83809100
:100F8000450390914603A0914703B091480324C0C4
:100F9000833039F50091490310914A0320914B03A6
:100FA00030914C03DB010D931D932D933C931397CC
:100FB00080914D0390914E03A0914F03B091500347
:100FC00088839983AA83BB838091510390915203B4
:100FD000A0915303B091540380839183A283B38380
:100FE0000EC0DB011D921D921D921C921397188258
:100FF00019821A821B821082118212821382DF915F
:10100000CF911F910F9108950F931F93CF93DF936B
:10101000CDB7DEB72C970FB6F894DEBF0FBECDBFAD
:101020008C01862F9E012F5F3F4FAE014B5F5F4FBC
:10103000BE01675F7F4F0E947807980140E050E053
:1010400089819A81AB81BC81281B390B4A0B5B0BD0
:1010500069857A858B859C850E9480198D819E810A
:10106000AF81B885281B390B4A0B5B0BB901CA014C
:101070002C960FB6F894DEBF0FBECDBFDF91CF9197
:101080001F910F910895CF92DF92EF92FF920F93ED
:101090001F93CF93DF93E4E1F3E080E094E091834A
:1010A000808306E113E0D80111969C938E93C8E1EA
:1010B000D3E099838883C12CA0EDDA2EA0E2EA2E3A
:1010C000F12CC0923103D0923203E0923303F092BC
:1010D000340340EE5CEF6FEF7FEF409335035093A6
:1010E000360360933703709338038EE59FEFAFEFBD
:1010F000BFEF8093390390933A03A0933B03B093DF
:101100003C03C0923D03D0923E03E0923F03F09235
:101110004003409341035093420360934303709311
:1011200044038093450390934603A0934703B093F1
:101130004803C0924903D0924A03E0924B03F092D5
:101140004C0340934D0350934E0360934F037093B1
:1011500050038093510390935203A0935303B09391
:1011600054038081918161E00E94040870931B0305
:1011700060931A03F8018081918162E00E94040863
:1011800070931D0360931C038881998163E00E9422
:10119000040870931F0360931E0384EC99E09093FE
:1011A000260380932503909328038093270390932D
:1011B0002A038093290380EA9FE090932103809380
:1011C0002003109222031092230310922403109202
:1011D0002B0310922C0310922D0310922E031092C9
:1011E0002F0310923003DF91CF911F910F91FF9049
:1011F000EF90DF90CF900C94C205CF92DF92EF92E8
:10120000FF92CF93DF93CDB7DEB72C970FB6F8944C
:10121000DEBF0FBECDBF6B017C01842F9E012F5F0F
:101220003F4FAE014B5F5F4FBE01675F7F4F0E9434
:1012300078072D813E814F8158852C0D3D1D4E1D17
:101240005F1D69857A858B859C850E9480198981BF
:101250009A81AB81BC81280F391F4A1F5B1F57FD44
:1012600007C0213084E038074105510524F405C04A
:1012700020E030E002C020E034E0C9012C960FB637
:10128000F894DEBF0FBECDBFDF91CF91FF90EF90FE
:10129000DF90CF9008958091E0029091E102A091BB
:1012A000E202B091E30290931B0380931A038091B2
:1012B000E4029091E502A091E602B091E7029093DA
:1012C0001D0380931C038091E8029091E902A09194
:1012D000EA02B091EB0290931F0380931E0380916A
:1012E000EC029091ED02A091EE02B091EF0290938A
:1012F0002103809320038091EC029091ED02A09154
:10130000EE02B091EF02B7FF04C081E080932203A8
:1013100002C0109222038091EC029091ED02A09104
:10132000EE02B091EF02B6FF04C081E08093230388
:1013300002C0109223038091EC029091ED02A091E3
:10134000EE02B091EF02B5FF04C081E08093240368
:1013500002C0109224038091F0029091F102A091BA
:10136000F202B091F3028093310390933203A09381
:101370003303B09334038091F4029091F502A0916D
:10138000F602B091F7028093350390933603A09351
:101390003703B09338038091F8029091F902A0913D
:1013A000FA02B091FB028093390390933A03A09321
:1013B0003B03B0933C038091FC029091FD02A0910D
:1013C000FE02B091FF0280933D0390933E03A093F1
:1013D0003F03B09340038091000390910103A091DB
:1013E0000203B09103038093410390934203A093BF
:1013F0004303B09344038091040390910503A091AB
:101400000603B09107038093450390934603A0938E
:101410004703B09348038091080390910903A0917A
:101420000A03B0910B038093490390934A03A0935E
:101430004B03B0934C0380910C0390910D03A0914A
:101440000E03B0910F0380934D0390934E03A0932E
:101450004F03B09350038091100390911103A0911A
:101460001203B09113038093510390935203A093FE
:101470005303B093540360911A0370911B0380E0EF
:1014800090E041E00E94FD089093150380931403BF
:1014900060911C0370911D0380E090E042E00E9487
:1014A000FD08909317038093160360911E037091BB
:1014B0001F0380E090E043E00E94FD089093190331
:1014C000809318038091E0029091E102A091E202E2
:1014D000B091E302CD01AA27BB279F70AA27BB27A3
:1014E00090932603809325038091E4029091E50276
:1014F000A091E602B091E702CD01AA27BB279F7019
:10150000AA27BB2790932803809327038091E802A2
:101510009091E902A091EA02B091EB02CD01AA27D5
:10152000BB279F70AA27BB2790932A038093290388
:101530008091E0029091E102A091E202B091E30279
:10154000B7FF04C081E080932B0302C010922B03ED
:101550008091E4029091E502A091E602B091E70249
:10156000B7FF04C081E080932C0302C010922C03CB
:101570008091E8029091E902A091EA02B091EB0219
:10158000B7FF04C081E080932D0302C010922D03A9
:101590008091E0029091E102A091E202B091E30219
:1015A000B6FF04C081E080932E0302C010922E0388
:1015B0008091E4029091E502A091E602B091E702E9
:1015C000B6FF04C081E080932F0302C010922F0366
:1015D0008091E8029091E902A091EA02B091EB02B9
:1015E000B6FF04C081E08093300308951092300369
:1015F00008950F931F93CF93DF93C0E0D0E08E0147
:10160000000F111F000F111FC801805090400E9451
:10161000E819F801E052FD4F608371838283938360
:101620002196CD30D10559F78091E0029091E102E9
:10163000A091E202B091E3028F3F9F4FAF4FBF4FA7
:1016400041F40E944308DF91CF911F910F910C94B8
:10165000C205DF91CF911F910F910C944B098230FD
:1016600031F0833099F08130F9F40C94CE03289A4C
:1016700081E080932C031092CF0280910801909119
:1016800009019093DD028093DC0208955A9A81E06B
:1016900080932D031092D00280910801909109014E
:1016A0009093DF028093DE020895823031F0833020
:1016B00091F08130E9F40C94DD03289810922C030A
:1016C0001092CF0280910601909107019093DD0264
:1016D0008093DC0208955A9810922D031092D00244
:1016E00080910601909107019093DF028093DE02C2
:1016F00008950E94DD0382E00E94550B83E00C9464
:10170000550B823031F0833081F08130C9F40C9474
:10171000EB0328981092CF02809106019091070167
:101720009093DD028093DC0208955A981092D002C3
:1017300080910601909107019093DF028093DE0271
:1017400008950E94EB0382E00E94810B83E00C94D9
:10175000810B823031F0833031F0813029F45E9892
:101760000895299808955F980895823031F0833064
:1017700031F0813029F45E9A0895299A08955F9A8C
:10178000089581E00E9435070E94170783E00E94B8
:10179000350780912E03813011F45E9801C05E9A66
:1017A00080912F03813021F482E00E94A90B03C0B5
:1017B00082E00E94B50B80913003813021F483E0F8
:1017C0000E94A90B03C083E00E94B50B8091D40254
:1017D000882341F08091D402882369F0809122030C
:1017E000882349F080912B03882319F00E94CE03AF
:1017F00002C00E94DD038091D402882341F08091D1
:10180000D402882379F080912303882359F08091B2
:101810002C03882321F082E00E942F0B03C082E07A
:101820000E94550B8091D402882341F08091D4020C
:10183000882379F080912403882359F080912D0327
:10184000882321F083E00E942F0B03C083E00E94D5
:10185000550B80E008954F925F927F928F929F92F6
:10186000AF92BF92CF92DF92EF92FF920F931F93AE
:10187000CF93DF93CDB7DEB76B970FB6F894DEBF8B
:101880000FBECDBF762E90E899838A83442309F456
:101890005EC0E22EF12CA701440F551F440F551FC7
:1018A000406C5F6F4983220F220F2F8B2E0163E064
:1018B000460E511CDE011496AE014B5F5F4F8E0148
:1018C0000A5F1F4F20E030E090E06C01E5E5CE1AA2
:1018D000D10839C071100AC0B901680F791F660FAD
:1018E000771F660F771F60527D4F09C0B601620FE8
:1018F000731F660F771F660F771F6F587D4FFB01B1
:1019000080809180A280B380F201B082FB01808050
:101910009180A280B380AC9280809180A280B380BD
:10192000FA019082FB0180809180A280B380F8014F
:1019300080822F5F3F4FF4E04F0E511C14964C5F96
:101940005F4F0C5F1F4F2E153F0524F223C094E01C
:101950009F8BE82FF0E0EE0FFF1FEE0FFF1F6111CE
:1019600003C0E052FD4F02C0E35EFE4F4081518153
:10197000628173817B8340815181628173816C8339
:1019800040815181628173815D8380819181A281D7
:10199000B3818E83CE0101960E94AE109B8F8A8FF9
:1019A000CE0101960E9440126B960FB6F894DEBFEE
:1019B0000FBECDBFDF91CF911F910F91FF90EF90A0
:1019C000DF90CF90BF90AF909F908F907F905F906F
:1019D0004F900895CF93DF93CDB7DEB76B970FB6D7
:1019E000F894DEBF0FBECDBF19828A831F8ACE0155
:1019F00001960E94AE109B8F8A8FCE0101960E94A5
:101A000040126B960FB6F894DEBF0FBECDBFDF91CC
:101A1000CF9108950F931F93CF93DF93CDB7DEB788
:101A20006B970FB6F894DEBF0FBECDBF8C01FC01E3
:101A3000808187FF06C00E944B090E94C10B0E9453
:101A4000F703F80181818A3A19F08B3AF1F418C052
:101A500090E899838A8384E08F8B88E48B8380E588
:101A60008C8380E38D8381E48E83CE0101960E9476
:101A7000AE109B8F8A8FCE0101960E9440120AC041
:101A80000E94F703F801818103C0F801908197FD5E
:101A90000E94EA0C6B960FB6F894DEBF0FBECDBF66
:101AA000DF91CF911F910F9108954F925F926F92A6
:101AB0007F92BF92CF92DF92EF92FF920F931F938C
:101AC000CF93DF93CDB7DEB76B970FB6F894DEBF39
:101AD0000FBECDBF8C01DC015896BC905897B11059
:101AE00015C011968C9190E021E08D3091050CF09D
:101AF00020E0F801308136FFC7C0369536953F703B
:101B0000830F911D0E970CF0BCC0BEC0F1E0BF1258
:101B100018C0DC0111968C9190E021E08935910587
:101B20000CF020E0F801308136FFAEC085559109F8
:101B3000369536953F70830F911D05970CF0A1C027
:101B4000A3C0F2E0BF121AC0DC0111968C9190E0A4
:101B50008C3A91050CF491C019828EEF02C0198263
:101B60008FEF8A831F8ACE0101960E94AE109B8F51
:101B70008A8FCE0101960E94401289C0F8014081EF
:101B800047FF71C0E688F12C359680E090E020E0B8
:101B900030E064C0D80111966C91B1102BC06C017B
:101BA000C60ED11CAF0141505109DA016C91AF0151
:101BB00042505109DA014C90512C612C712C3201A8
:101BC00055244424562A4081442AAF0143505109E8
:101BD000DA014C91742ACC0CDD1CCC0CDD1C40EEDF
:101BE00052E0C40ED51ED6014D925D926D927C924C
:101BF000139730C0A62FB0E03D0145E5641A710887
:101C0000680E791EAF0141505109DA01DC90AF0135
:101C100042505109DA014C9150E060E070E0BA01A5
:101C2000552744275D29D0804D296F01B3E0CB1A99
:101C3000D108D601DC907D29660C771C660C771CD8
:101C4000A1E7B2E06A0E7B1ED3014D935D936D93C5
:101C50007C93139701962C5F3F4F34962E153F05CA
:101C60000CF498CF0AC0242F269526952F70407427
:101C70006B2DF80181810E942B0CC8010E940A0D76
:101C800006C021116CCF68CF211178CF65CF6B963C
:101C90000FB6F894DEBF0FBECDBFDF91CF911F917D
:101CA0000F91FF90EF90DF90CF90BF907F906F905B
:101CB0005F904F900895CF93DF93CDB7DEB76B97CA
:101CC0000FB6F894DEBF0FBECDBF91E099838A8333
:101CD0001F8ACE0101960E94AE109B8F8A8FCE0183
:101CE00001960E9440126B960FB6F894DEBF0FBEAD
:101CF000CDBFDF91CF910895089580E28093B80021
:101D000084E88093BC0008958093BB0084E88093AE
:101D1000BC008091BC0087FFFCCF8091B900887F18
:101D2000883229F084E98093BC0081E0089580E046
:101D30000895CF93DF931F92CDB7DEB7823039F18C
:101D400050F0833031F1843001F191E0892F0F9010
:101D5000DF91CF9108958130C1F780E0272F30E0E7
:101D600021703327822B69830E94840E698181113F
:101D7000ECCF862F0E94840E91E08111E7CF90E096
:101D8000892F0F90DF91CF91089580E7E7CF80E111
:101D9000E5CF80E6E3CF8F929F92AF92BF92CF9232
:101DA000DF92EF92FF920F931F93CF93DF9300D0B8
:101DB00000D0CDB7DEB777FD45C0413094E059077C
:101DC000610571050CF475C00DEF10E020E030E006
:101DD00088248394982C41E051E061E071E0101672
:101DE0001106120613060CF061C0780194EA909374
:101DF000BC0002E211EA27E030E006C00150110900
:101E00002109310909F47AC09091BC0097FFF6CFFF
:101E10009091B900987F983009F479C022E030E0C1
:101E2000C9010F900F900F900F90DF91CF911F91EC
:101E30000F91FF90EF90DF90CF90BF90AF909F9069
:101E40008F90089540E050E0BA017EEFC72E7DEFFD
:101E5000D72EEE24EA94FE2C0DEF1CEF2FEF3FEF70
:101E600088248A94EEEF9E2EA82CB82CF1E08F16D1
:101E70009F06A104B1040CF093C0181419041A04AD
:101E80001B040CF041C091E0C916D906E104F1042D
:101E90000CF09AC01C141D041E041F0494F5B60116
:101EA00010161106120613060CF49FCFE12CF12C2C
:101EB0009DCF88248A94FEEF9F2EA82CB82C840EE8
:101EC000951EA61EB71EAEEFCA2EADEFDA2EEE247B
:101ED000EA94FE2CC40ED51EE61EF71E8A019B0155
:101EE00003501340210931094130E1E05E076105EB
:101EF00071050CF4BBCF41E051E0B8CF21E030E0F8
:101F00008FCF60E070E06BCF812C912CBCCF880F1D
:101F10008093BB0084E88093BC0082E291EAA7E052
:101F2000B0E004C00197A109B10941F32091BC00C0
:101F300027FFF8CF8091B900887F883131F084E99C
:101F40008093BC0023E030E06BCF80E04B835C8368
:101F500069837A830E94840E4B815C8169817A81D6
:101F6000882331F084E98093BC0024E030E058CF2E
:101F70008E2D4B835C8369837A830E94840E6981F2
:101F80007A818111EFCF82E00E94990E4B815C81B2
:101F9000882351F084E98093BC0025E030E040CFF5
:101FA00088248394982C6FCFB40183E04B835C83A7
:101FB0000E94990E4B815C81882349F084E98093CB
:101FC000BC0026E030E02CCF61E071E008CFBA0120
:101FD00084E00E94990E882331F084E98093BC004C
:101FE00027E030E01DCF84E98093BC0020E030E0A2
:101FF00017CF10920B041092A40310927103109249
:102000000A0410920C04E1ECF0E0108286E0809368
:10201000C2001092C50081E48093C40088EB8083E5
:10202000089590910A04923320F010920A041092BD
:102030007103E0910A04F0E0E852FC4F8083809144
:102040000A048F5F80930A0480910A04823310F09F
:1020500010920A0408958091C00085FB882780F9BA
:1020600008959091710380910A049817B9F00E9425
:102070002B10882399F0E0917103F0E0E852FC4FB7
:1020800080818093C600809171038F5F809371037C
:1020900080917103823310F0109271030895EF92D2
:1020A000FF921F93CF93DF931F92CDB7DEB7182F08
:1020B000862F81508133A8F4E12EF92EF70181910A
:1020C0007F0169830E9411108E2D811B6981861703
:1020D000A8F30F90DF91CF911F91FF90EF900C9498
:1020E00031100F90DF91CF911F91FF90EF900895E5
:1020F000DC010D900020E9F7BD0161507109681BFA
:10210000790B0C944F100E9478100E942B1088239A
:10211000E1F308951F920F920FB60F9211242F939F
:102120003F934F935F936F937F938F939F93AF935F
:10213000BF93EF93FF930E943110FF91EF91BF91F6
:10214000AF919F918F917F916F915F914F913F914F
:102150002F910F900FBE0F901F9018950F931F9304
:10216000CF93DF93DC018C911196EC911197F0E005
:10217000E80FF11DEF5AFE4F56960C91569710E05E
:1021800020E030E040E050E0BA010AC0ED01C40FA9
:10219000D51F8A81E80FF11D4F5F5F4F6F4F7F4F53
:1021A00040175107620773078CF3CF01DF91CF917E
:1021B0001F910F9108951F920F920FB60F92112445
:1021C0002F933F934F935F936F937F938F939F933F
:1021D000AF93BF93CF93EF93FF938091A403813389
:1021E00010F01092A403C091C60080910B048823C4
:1021F00009F4D9C08091A503823009F47DC030F480
:10220000882359F0813009F029C151C0833009F485
:102210008EC0843009F022C19CC08091A403E82FB5
:10222000F0E0EE58FC4FC0838F5F8093A403809151
:102230003602811106C0CA3391F481E080933602E0
:102240000EC0813061F4C83741F41092A40310929B
:102250000B0481ED91E00E9478101092360280917B
:10226000A403833008F4FAC0E091A403F0E0E1593C
:10227000FC4F8081833709F0F1C0E091A403F0E0C6
:10228000E059FC4F80818E3609F0E8C0E091A4034C
:10229000F0E0EF58FC4F8081803709F0DFC01092EA
:1022A000A40381E08093A50310923602D7C0C093A7
:1022B00055038091550387FD03C010926B0315C031
:1022C0008091550386FF0CC08091550386958695B5
:1022D0008F7080936C0380916C03880F880F03C00C
:1022E00010926C0384E080936B0380916B038531C3
:1022F00008F056C082E018C0C09356039091560370
:102300009A3A08F005C080915603863520F081E0A6
:1023100080936D0302C010926D0380916B0388233C
:10232000B1F01092360283E08093A50397C08091AC
:102330003602E82FF0E0EB5AFC4FC2838F5F8093A8
:10234000360290916B03891389C01092360284E0A3
:10235000EBCF8091360281110AC03C2F20E03093F0
:102360006F0320936E0381E08093360277C0209143
:102370006E0330916F032C2B30936F0320936E0309
:1023800085E593E00E94AE1020916E0330916F03BB
:102390008217930719F481E080930C04109236029F
:1023A0001092A5035BC0C83011F0CF37A1F4809123
:1023B000A403882309F452C08091A4038150809320
:1023C000A40380911704811149C08C2F0E94111021
:1023D0000E94311043C08C2F80528F3518F0CD30C1
:1023E000E9F509C080911704811105C08C2F0E9466
:1023F00011100E9431108091A403E82FF0E0EE58F4
:10240000FC4FC0838F5F8093A403E091A403F0E0AE
:10241000EF58FC4F80818D3009F50CC0822F90E081
:10242000FC01EE58FC4F3081FC01EA55FC4F308333
:102430002F5F01C020E08091A403281778F3E0917A
:10244000A403F0E0EA55FC4F108281E080930C0475
:102450008091A403809370031092A403FF91EF91E5
:10246000CF91BF91AF919F918F917F916F915F912C
:102470004F913F912F910F900FBE0F901F90189585
:102480000F931F93CF93DF93EC018E89843158F51E
:1024900083E70E9411108EE60E94111080E70E94CF
:1024A000111088810E94111089810E94111000E092
:1024B00010E008C0FE01E00FF11F82810E941110A0
:1024C0000F5F1F4F8E8990E0081719079CF38A8DC4
:1024D0000E941110898D0E941110DF91CF911F91E0
:1024E0000F910C943110DF91CF911F910F910895AE
:1024F000823031F0833031F0813039F45C9A06C09B
:102500005C9801C05C9A5B9A08955C985B9808950A
:10251000DC012C912D3221F4019661E070E002C0C3
:1025200060E070E0FC0120E030E08AE04191942F0F
:1025300090539A3030F0672B81F031952195310915
:102540000CC0D9018A9F90018B9F300D112450E05F
:1025500040535109240F351FE9CFC90108953F9217
:102560004F925F926F927F928F929F92AF92BF92A3
:10257000CF92DF92EF92FF920F931F93CF93DF934F
:102580004B015C017A01690197FF0DC0B094A094E2
:1025900090948094811C911CA11CB11CC1E0D0E0DE
:1025A0003324339403C0C0E0D0E0312CA501940162
:1025B0009AE0492E512C612C712C01C0E8018E014A
:1025C0000F5F1F4FCA01B901A30192010E94801938
:1025D00012161306140615068CF3C016D10618F150
:1025E000CE0DDF1D8AE0482E512C612C712CC501C7
:1025F000B401A30192010E948019605D68834901C2
:102600005A012197181419041A041B0484F3332067
:1026100019F08DE2F7018083F701E00FF11F1082BE
:1026200020E030E002C021E030E0C901DF91CF912D
:102630001F910F91FF90EF90DF90CF90BF90AF90E0
:102640009F908F907F906F905F904F903F900895F4
:10265000CF93DF93FB01EA019C01A8EEB3E00E9457
:102660009C199F0140E050E00E945E19DE010E942B
:10267000A81928EE33E040E050E00E945E19C9013D
:10268000DF91CF9108950F931F93CF93DF93FC01B8
:1026900020812D3221F40196E1E0F0E002C0E0E07B
:1026A000F0E0DC0180E090E020E030E060E070E00D
:1026B000CAE012C0009711F02F5F3F4F8B01C09FFF
:1026C000B001C19F700D112450E040535109640FB7
:1026D000751F02C081E090E04D91542F50535A3045
:1026E00048F320C0CB01BE010E944A192150310994
:1026F00002C0CAE0D0E024303105A4F709C0AB0124
:10270000849FB001859F700D11242F5F3F4F01C042
:102710008AE02330310599F7EF2B39F071956195F7
:10272000710903C04E32B1F2E4CFCB01DF91CF91FA
:102730001F910F910895805321E030E08A3010F00E
:1027400020E030E0C9010895AB01FC0120E030E059
:1027500060E070E0CB0108C0A191B1916A0F7B1FCE
:10276000811D911D2F5F3F4F24173507A9F740E0CA
:1027700050E00E945E19C9010895CF93DF9300D005
:1027800000D01F92CDB7DEB785E0E4E1F1E0DE01D5
:10279000119601900D928A95E1F7CE0101960E9463
:1027A00083100F900F900F900F900F90DF91CF91AB
:1027B0000895EF92FF920F931F93CF93DF93E82E2C
:1027C000F62E0DE014E08BE1F8018083CEE0D4E03A
:1027D0008BE5888310920F04C8010E9483106E2D30
:1027E00070E080E090E02AE030E0A8010E94AF12A3
:1027F000C8010E9483108BE3F80180831882C8010E
:102800000E9483106F2D70E080E090E02AE030E0BD
:10281000A8010E94AF12C8010E94831088E4F80149
:1028200080831882C801DF91CF911F910F91FF9093
:10283000EF900C9483100F931F93CF93DF93CDB73A
:10284000DEB72A970FB6F894DEBF0FBECDBF8A0160
:102850002AE030E0AE014F5F5F4F0E94AF12FE01F1
:10286000319680E090E004C001968A309105A9F18C
:1028700021912111F9CF8630910569F48981F80100
:1028800080838A8181838EE282838B8183838C81A2
:10289000848315822AC08530910549F48981F80125
:1028A00080838EE281838A8182838B811CC0843005
:1028B000910549F480E3F80180838EE28183898168
:1028C00082838A8110C0039741F480E3F8018083FA
:1028D0009EE291838283898106C080E3F801808330
:1028E0009EE291838283838314822A960FB6F894A2
:1028F000DEBF0FBECDBFDF91CF911F910F91089525
:1029000081E0809317048BEE91E00E948310209168
:10291000810230918202AAE0B0E00E949C194DE051
:1029200054E00E941B148DE094E00E94831080917B
:102930001201909113010E94831083EF91E00E9495
:10294000831081E192E00E948310209183023091F4
:102950008402AAE0B0E00E949C194DE054E00E947D
:102960001B148DE094E00E94831020918902309125
:102970008A02AAE0B0E00E949C194DE054E00E9457
:102980001B1488E192E00E9483108DE094E00E9485
:1029900083108DE192E00E948310209125033091F5
:1029A0002603AAE0B0E00E949C194DE054E00E948A
:1029B0001B148DE094E00E9483108FE192E00E944E
:1029C000831080913D0290913E020E94831080917D
:1029D0001201909113010E94831082E292E00E9402
:1029E00083102091850230918602AAE0B0E00E9417
:1029F0009C194DE054E00E941B148DE094E00E946D
:102A0000831020918B0230918C02AAE0B0E00E94EA
:102A10009C194DE054E00E941B1488E192E00E9452
:102A200083108DE094E00E9483108DE192E00E947B
:102A300083102091270330912803AAE0B0E00E9480
:102A40009C194DE054E00E941B148DE094E00E941C
:102A500083108FE192E00E9483108091DC029091BC
:102A6000DD020E94831080911201909113010E9457
:102A7000831089E292E00E948310209187023091B6
:102A80008802AAE0B0E00E949C194DE054E00E9448
:102A90001B148DE094E00E94831020918D023091F0
:102AA0008E02AAE0B0E00E949C194DE054E00E9422
:102AB0001B1488E192E00E9483108DE094E00E9454
:102AC00083108DE192E00E948310209129033091C0
:102AD0002A03AAE0B0E00E949C194DE054E00E9455
:102AE0001B148DE094E00E9483108FE192E00E941D
:102AF00083108091DE029091DF020E94831080E3B8
:102B000092E00E9483106091A40382E793E00E9408
:102B10004F10109217040895CF93DF93CDB7DEB70F
:102B20006B970FB6F894DEBF0FBECDBF1092D902DF
:102B30001092DA021092DB021092D5021092D602A5
:102B40001092D7021092D8021092CE021092CF02A9
:102B50001092D0021092D1021092D2021092D3029F
:102B60001092170410923A02809106019091070189
:102B700090933E0280933D029093DD028093DC02AD
:102B80009093DF028093DE021092D4022FEF89E649
:102B900098E1215080409040E1F700C000000E9481
:102BA0007D0E0E94F90F80E88FBF559A209A529AA5
:102BB000569A219A579A549A539A0E949E000E94BC
:102BC000F90A0E94C10B0E9453000AE010E08BE159
:102BD000F82E8091D902882309F48AC080912B03B2
:102BE0008823A1F12091890230918A0280912503E6
:102BF000909126038217930748F540912503509141
:102C000026036091890270918A02809183029091DB
:102C100084020E942813BC0180E090E041E00E9401
:102C2000FD08909315038093140381E00E943507FB
:102C300081115AC081E08093CE028091040190916D
:102C4000050190933E0280933D024EC080912B037C
:102C5000882309F449C08091CE02882309F444C036
:102C6000E0918902F0918A02209125033091260398
:102C70008091250390912603B8010E943619261BE6
:102C8000370BE217F30780F5409125035091260397
:102C90006091890270918A028091830290918402EE
:102CA0000E942813BC0180911A0390911B0368179E
:102CB000790770F01092CE0280910801909109017D
:102CC00090933E0280933D0260911A0370911B0322
:102CD00080E090E041E00E94FD089093150380930E
:102CE000140381E00E9435070E94C6051092D902A4
:102CF0008091DA02882309F48AC080912C0388230A
:102D0000A1F120918B0230918C0280912703909148
:102D100028038217930748F5409127035091280311
:102D200060918B0270918C02809185029091860255
:102D30000E942813BC0180E090E042E00E94FD0860
:102D4000909317038093160382E00E943507811148
:102D50005AC081E08093CF028091040190910501D7
:102D60009093DD028093DC024EC080912C03882377
:102D700009F449C08091CF02882309F444C0E0914E
:102D80008B02F0918C0220912703309128038091CF
:102D9000270390912803B8010E943619261B370B90
:102DA000E217F30780F540912703509128036091C3
:102DB0008B0270918C0280918502909186020E9414
:102DC0002813BC0180911C0390911D03681779079B
:102DD00070F01092CF0280910801909109019093B8
:102DE000DD028093DC0260911C0370911D0380E082
:102DF00090E042E00E94FD08909317038093160331
:102E000082E00E9435070E94C6051092DA02809186
:102E1000DB02882309F48AC080912D038823A1F165
:102E200020918D0230918E028091290390912A0386
:102E30008217930748F54091290350912A03609126
:102E40008D0270918E0280918702909188020E947B
:102E50002813BC0180E090E043E00E94FD089093BD
:102E600019038093180383E00E94350781115AC02B
:102E700081E08093D00280910401909105019093AC
:102E8000DF028093DE024EC080912D03882309F477
:102E900049C08091D002882309F444C0E0918D029A
:102EA000F0918E022091290330912A038091290309
:102EB00090912A03B8010E943619261B370BE2179E
:102EC000F30780F54091290350912A0360918D0208
:102ED00070918E0280918702909188020E9428133F
:102EE000BC0180911E0390911F036817790770F051
:102EF0001092D00280910801909109019093DF0215
:102F00008093DE0260911E0370911F0380E090E0C9
:102F100043E00E94FD08909319038093180383E017
:102F20000E9435070E94C6051092DB028091D602EE
:102F3000882321F00E94C6051092D6028091D70204
:102F4000882321F00E94C6051092D7028091D802F2
:102F5000882321F00E94C6051092D8028091D502E4
:102F6000882359F1209181023091820280912003BF
:102F7000909121032817390720F08091D4028823EB
:102F8000C1F081E08093D40280912203811103C0BB
:102F900081E00E94810B80912303811103C082E0B4
:102FA0000E94810B80912403811103C083E00E9461
:102FB000810B0E94C6051092D50280913A028823A7
:102FC00039F080910B04811103C010923A0210C0B5
:102FD00080913A02882361F080910B04813041F4A2
:102FE00010923A0224E040E461E085E50E942B0C57
:102FF00080910C04882341F080917003813021F48A
:1030000010920C040E94801480910C04882309F40F
:10301000E0CD80917003823008F4DBCD10920C0477
:1030200080910B04811114C163E471E086EA93E09E
:103030000E94B3196C01BC0186E491E00E94B819AA
:10304000009731F481E080930B0489E491E0BDC0E6
:10305000B60187E691E00E94B819009721F563E474
:1030600071E080E090E00E94B3190E9443139093B6
:103070001B0380931A0360911A0370911B0380E075
:1030800090E041E00E94FD089093150380931403A3
:103090000E94C20581E04EC0809110019091110103
:1030A0000E947810D2C0B6018CE691E00E94B81957
:1030B0000097E9F463E471E080E090E00E94B319C6
:1030C0000E94431390931D0380931C0360911C0383
:1030D00070911D0380E090E042E00E94FD08909313
:1030E0001703809316030E94C20582E023C0B60135
:1030F00081E791E00E94B819009731F563E471E02F
:1031000080E090E00E94B3190E94431390931F0344
:1031100080931E0360911E0370911F0380E090E076
:1031200043E00E94FD0890931903809318030E94C6
:10313000C20583E00E943507882309F4ADCF809152
:103140000E0190910F01ACCFB60186E791E00E948D
:10315000B819009769F463E471E080E090E00E94A0
:10316000B3190E944313909326038093250327C02D
:10317000B6018CE791E00E94B819009769F463E406
:1031800071E080E090E00E94B3190E944313909395
:1031900028038093270313C0B60182E891E00E94C0
:1031A000B8190097A9F463E471E080E090E00E9410
:1031B000B3190E94431390932A03809329030E941A
:1031C000C20580911001909111010E94781001CDEB
:1031D000B60188E891E00E94B819009789F463E489
:1031E00071E080E090E00E94B3190E9488129C0177
:1031F0002150310923303105E8F40E942F0B17C00C
:10320000B6018BE891E00E94B8190097C1F463E41D
:1032100071E080E090E00E94B3190E9488129C0146
:10322000215031092330310528F40E94550B0E94AA
:10323000C20532CF80910C0190910D0131CF809168
:103240000A0190910B010E9483100E945300C1CC8F
:10325000E5E5F3E0DE0111968F2D01900D928A9540
:10326000E1F7CE0101960E94550DB3CCAA1BBB1B02
:1032700051E107C0AA1FBB1FA617B70710F0A61B76
:10328000B70B881F991F5A95A9F780959095BC0197
:10329000CD01089597FB072E16F4009407D077FD13
:1032A00009D00E94361907FC05D03EF4909581950F
:1032B0009F4F0895709561957F4F0895A1E21A2E52
:1032C000AA1BBB1BFD010DC0AA1FBB1FEE1FFF1FCA
:1032D000A217B307E407F50720F0A21BB30BE40B1A
:1032E000F50B661F771F881F991F1A9469F7609561
:1032F0007095809590959B01AC01BD01CF0108951B
:10330000052E97FB16F4009407D057FD0DD00E94B0
:103310005E1907FC09D07EF49095809570956195B3
:103320007F4F8F4F9F4F0895509540953095219531
:103330003F4F4F4F5F4F0895A29FB001B39FC00111
:10334000A39F01D0B29F700D811D1124911D08957E
:103350000E949C19A59F900DB49F900DA49F800D75
:10336000911D1124089547E352E00E94C119089568
:10337000FB01DC018D91019080190110D9F3990BAB
:103380000895FA01A191B081009719F41097E1F026
:10339000CD01DC01CD010D90002011F4C00113C05E
:1033A000FB012191222319F02015D9F7F3CFFB015E
:1033B0002191201519F41E92119606C02223C1F7FF
:1033C0000D900020A1F7D001FA01A193B0830895D8
:1033D000A6E1B0E044E050E00C94FD19242F0E94D7
:1033E0000C1A252F0E940C1A0C94F6190E940B1A25
:1033F000272F0C940C1ADC01CB01FC01F999FECFAC
:1034000006C0F2BDE1BDF89A319600B40D9241506C
:103410005040B8F70895262FF999FECF1FBA92BDF4
:1034200081BD20BD0FB6F894FA9AF99A0FBE0196A5
:063430000895F894FFCF9F
:10343600190124012F0137013B018F01A201B801B7
:10344600C70164011B5B324A002A4641554C542A87
:10345600204332002A4641554C542A204331004F1E
:103466004E202D204343004F4646004F4E202D2030
:10347600435600200D003A62000D0A456E746572CF
:10348600696E672062696E61727920434F4D206DC7
:103496006F64652E0D0A00736574310073657432AE
:1034A6000073657433007365746331007365746308
:1034B6003200736574633300656E00646973000DD2
:1034C6000A202042616420436F6D6D616E640D0AAF
:1034D6003E000D0A2020496E76616C6964205375A2
:1034E60070706C790D0A3E000D0A20204641494C49
:1034F6004544210D0A3E000D0A20204F4B0D0A3E81
:10350600000D0A456E746572696E67204153434922
:1035160049206D6F64652E0D0A3E000D0A56696ED0
:103526003A200009566F6C746167650920202043B4
:10353600757272656E7409205374617475730D0A21
:1035460000566F757431090009202020002F0009EC
:103556002000566F7574320900566F757433090072
:063566000D0A0D0A3E00F3
:00000001FF
